{
  "_format": "hh-sol-artifact-1",
  "contractName": "VotingSystem",
  "sourceName": "contracts/VotingSystem.sol",
  "abi": [
    {
      "inputs": [],
      "stateMutability": "nonpayable",
      "type": "constructor"
    },
    {
      "anonymous": false,
      "inputs": [
        {
          "indexed": true,
          "internalType": "uint256",
          "name": "nomineeId",
          "type": "uint256"
        },
        {
          "indexed": false,
          "internalType": "string",
          "name": "name",
          "type": "string"
        }
      ],
      "name": "NomineeAdded",
      "type": "event"
    },
    {
      "anonymous": false,
      "inputs": [
        {
          "indexed": true,
          "internalType": "address",
          "name": "voter",
          "type": "address"
        },
        {
          "indexed": true,
          "internalType": "uint256",
          "name": "nomineeId",
          "type": "uint256"
        }
      ],
      "name": "VoteCast",
      "type": "event"
    },
    {
      "anonymous": false,
      "inputs": [
        {
          "indexed": true,
          "internalType": "address",
          "name": "voter",
          "type": "address"
        },
        {
          "indexed": false,
          "internalType": "string",
          "name": "aadharHash",
          "type": "string"
        }
      ],
      "name": "VoterRegistered",
      "type": "event"
    },
    {
      "anonymous": false,
      "inputs": [
        {
          "indexed": false,
          "internalType": "bool",
          "name": "status",
          "type": "bool"
        }
      ],
      "name": "VotingStatusChanged",
      "type": "event"
    },
    {
      "inputs": [
        {
          "internalType": "string",
          "name": "_name",
          "type": "string"
        },
        {
          "internalType": "string",
          "name": "_description",
          "type": "string"
        }
      ],
      "name": "addNominee",
      "outputs": [],
      "stateMutability": "nonpayable",
      "type": "function"
    },
    {
      "inputs": [],
      "name": "admin",
      "outputs": [
        {
          "internalType": "address",
          "name": "",
          "type": "address"
        }
      ],
      "stateMutability": "view",
      "type": "function"
    },
    {
      "inputs": [],
      "name": "getAllNominees",
      "outputs": [
        {
          "components": [
            {
              "internalType": "uint256",
              "name": "id",
              "type": "uint256"
            },
            {
              "internalType": "string",
              "name": "name",
              "type": "string"
            },
            {
              "internalType": "string",
              "name": "description",
              "type": "string"
            },
            {
              "internalType": "uint256",
              "name": "voteCount",
              "type": "uint256"
            },
            {
              "internalType": "bool",
              "name": "exists",
              "type": "bool"
            }
          ],
          "internalType": "struct VotingSystem.Nominee[]",
          "name": "",
          "type": "tuple[]"
        }
      ],
      "stateMutability": "view",
      "type": "function"
    },
    {
      "inputs": [
        {
          "internalType": "uint256",
          "name": "_nomineeId",
          "type": "uint256"
        }
      ],
      "name": "getNominee",
      "outputs": [
        {
          "internalType": "uint256",
          "name": "id",
          "type": "uint256"
        },
        {
          "internalType": "string",
          "name": "name",
          "type": "string"
        },
        {
          "internalType": "string",
          "name": "description",
          "type": "string"
        },
        {
          "internalType": "uint256",
          "name": "voteCount",
          "type": "uint256"
        }
      ],
      "stateMutability": "view",
      "type": "function"
    },
    {
      "inputs": [],
      "name": "getTotalVotes",
      "outputs": [
        {
          "internalType": "uint256",
          "name": "",
          "type": "uint256"
        }
      ],
      "stateMutability": "view",
      "type": "function"
    },
    {
      "inputs": [
        {
          "internalType": "address",
          "name": "_voter",
          "type": "address"
        }
      ],
      "name": "getVoterInfo",
      "outputs": [
        {
          "internalType": "bool",
          "name": "hasVoted",
          "type": "bool"
        },
        {
          "internalType": "uint256",
          "name": "votedNomineeId",
          "type": "uint256"
        },
        {
          "internalType": "bool",
          "name": "isRegistered",
          "type": "bool"
        }
      ],
      "stateMutability": "view",
      "type": "function"
    },
    {
      "inputs": [],
      "name": "getVotingStatus",
      "outputs": [
        {
          "internalType": "bool",
          "name": "",
          "type": "bool"
        }
      ],
      "stateMutability": "view",
      "type": "function"
    },
    {
      "inputs": [
        {
          "internalType": "address",
          "name": "_address",
          "type": "address"
        }
      ],
      "name": "isAdmin",
      "outputs": [
        {
          "internalType": "bool",
          "name": "",
          "type": "bool"
        }
      ],
      "stateMutability": "view",
      "type": "function"
    },
    {
      "inputs": [],
      "name": "nomineeCount",
      "outputs": [
        {
          "internalType": "uint256",
          "name": "",
          "type": "uint256"
        }
      ],
      "stateMutability": "view",
      "type": "function"
    },
    {
      "inputs": [
        {
          "internalType": "uint256",
          "name": "",
          "type": "uint256"
        }
      ],
      "name": "nominees",
      "outputs": [
        {
          "internalType": "uint256",
          "name": "id",
          "type": "uint256"
        },
        {
          "internalType": "string",
          "name": "name",
          "type": "string"
        },
        {
          "internalType": "string",
          "name": "description",
          "type": "string"
        },
        {
          "internalType": "uint256",
          "name": "voteCount",
          "type": "uint256"
        },
        {
          "internalType": "bool",
          "name": "exists",
          "type": "bool"
        }
      ],
      "stateMutability": "view",
      "type": "function"
    },
    {
      "inputs": [
        {
          "internalType": "address",
          "name": "_voter",
          "type": "address"
        },
        {
          "internalType": "string",
          "name": "_aadharHash",
          "type": "string"
        }
      ],
      "name": "registerVoter",
      "outputs": [],
      "stateMutability": "nonpayable",
      "type": "function"
    },
    {
      "inputs": [],
      "name": "toggleVoting",
      "outputs": [],
      "stateMutability": "nonpayable",
      "type": "function"
    },
    {
      "inputs": [],
      "name": "totalVotes",
      "outputs": [
        {
          "internalType": "uint256",
          "name": "",
          "type": "uint256"
        }
      ],
      "stateMutability": "view",
      "type": "function"
    },
    {
      "inputs": [
        {
          "internalType": "uint256",
          "name": "_nomineeId",
          "type": "uint256"
        }
      ],
      "name": "vote",
      "outputs": [],
      "stateMutability": "nonpayable",
      "type": "function"
    },
    {
      "inputs": [
        {
          "internalType": "address",
          "name": "",
          "type": "address"
        }
      ],
      "name": "voters",
      "outputs": [
        {
          "internalType": "bool",
          "name": "hasVoted",
          "type": "bool"
        },
        {
          "internalType": "uint256",
          "name": "votedNomineeId",
          "type": "uint256"
        },
        {
          "internalType": "bool",
          "name": "isRegistered",
          "type": "bool"
        },
        {
          "internalType": "string",
          "name": "aadharHash",
          "type": "string"
        }
      ],
      "stateMutability": "view",
      "type": "function"
    },
    {
      "inputs": [],
      "name": "votingOpen",
      "outputs": [
        {
          "internalType": "bool",
          "name": "",
          "type": "bool"
        }
      ],
      "stateMutability": "view",
      "type": "function"
    }
  ],
  "bytecode": "0x608060405234801561001057600080fd5b50336000806101000a81548173ffffffffffffffffffffffffffffffffffffffff021916908373ffffffffffffffffffffffffffffffffffffffff1602179055506000600560006101000a81548160ff0219169083151502179055506000600381905550600060048190555061214e8061008b6000396000f3fe608060405234801561001057600080fd5b50600436106101005760003560e01c8063a3ec138d11610097578063c5e7e32b11610066578063c5e7e32b146102a7578063ebbb4f84146102c3578063eec6b91e146102df578063f851a4401461031357610100565b8063a3ec138d1461022e578063a512480314610261578063a95824b41461027f578063aae3bd471461029d57610100565b806327ebf531116100d357806327ebf5311461018d578063581c281c146101c05780639a0e7d66146101de5780639ed1f255146101fc57610100565b80630121b93f146101055780630d15fd77146101215780630d43a62c1461013f57806324d7806c1461015d575b600080fd5b61011f600480360381019061011a91906113b5565b610331565b005b61012961062f565b60405161013691906113f1565b60405180910390f35b610147610635565b60405161015491906113f1565b60405180910390f35b6101776004803603810190610172919061146a565b61063b565b60405161018491906114b2565b60405180910390f35b6101a760048036038101906101a291906113b5565b610694565b6040516101b7949392919061155d565b60405180910390f35b6101c8610897565b6040516101d591906114b2565b60405180910390f35b6101e66108ae565b6040516101f391906113f1565b60405180910390f35b6102166004803603810190610211919061146a565b6108b8565b604051610225939291906115b0565b60405180910390f35b6102486004803603810190610243919061146a565b6109f9565b60405161025894939291906115e7565b60405180910390f35b610269610acb565b60405161027691906117da565b60405180910390f35b610287610ced565b60405161029491906114b2565b60405180910390f35b6102a5610d00565b005b6102c160048036038101906102bc9190611931565b610e00565b005b6102dd60048036038101906102d891906119a9565b610f89565b005b6102f960048036038101906102f491906113b5565b6111c3565b60405161030a959493929190611a05565b60405180910390f35b61031b611316565b6040516103289190611a75565b60405180910390f35b600560009054906101000a900460ff16610380576040517f08c379a000000000000000000000000000000000000000000000000000000000815260040161037790611adc565b60405180910390fd5b600260003373ffffffffffffffffffffffffffffffffffffffff1673ffffffffffffffffffffffffffffffffffffffff16815260200190815260200160002060020160009054906101000a900460ff1661040f576040517f08c379a000000000000000000000000000000000000000000000000000000000815260040161040690611b48565b60405180910390fd5b600260003373ffffffffffffffffffffffffffffffffffffffff1673ffffffffffffffffffffffffffffffffffffffff16815260200190815260200160002060000160009054906101000a900460ff161561049f576040517f08c379a000000000000000000000000000000000000000000000000000000000815260040161049690611bb4565b60405180910390fd5b6001600082815260200190815260200160002060040160009054906101000a900460ff16610502576040517f08c379a00000000000000000000000000000000000000000000000000000000081526004016104f990611c20565b60405180910390fd5b6001600260003373ffffffffffffffffffffffffffffffffffffffff1673ffffffffffffffffffffffffffffffffffffffff16815260200190815260200160002060000160006101000a81548160ff02191690831515021790555080600260003373ffffffffffffffffffffffffffffffffffffffff1673ffffffffffffffffffffffffffffffffffffffff168152602001908152602001600020600101819055506001600082815260200190815260200160002060030160008154809291906105cb90611c6f565b9190505550600460008154809291906105e390611c6f565b9190505550803373ffffffffffffffffffffffffffffffffffffffff167fa36cc2bebb74db33e9f88110a07ef56e1b31b24b4c4f51b54b1664266e29f45b60405160405180910390a350565b60045481565b60035481565b60008060009054906101000a900473ffffffffffffffffffffffffffffffffffffffff1673ffffffffffffffffffffffffffffffffffffffff168273ffffffffffffffffffffffffffffffffffffffff16149050919050565b600060608060006001600086815260200190815260200160002060040160009054906101000a900460ff166106fe576040517f08c379a00000000000000000000000000000000000000000000000000000000081526004016106f590611c20565b60405180910390fd5b6000600160008781526020019081526020016000206040518060a00160405290816000820154815260200160018201805461073890611ce6565b80601f016020809104026020016040519081016040528092919081815260200182805461076490611ce6565b80156107b15780601f10610786576101008083540402835291602001916107b1565b820191906000526020600020905b81548152906001019060200180831161079457829003601f168201915b505050505081526020016002820180546107ca90611ce6565b80601f01602080910402602001604051908101604052809291908181526020018280546107f690611ce6565b80156108435780601f1061081857610100808354040283529160200191610843565b820191906000526020600020905b81548152906001019060200180831161082657829003601f168201915b50505050508152602001600382015481526020016004820160009054906101000a900460ff161515151581525050905080600001518160200151826040015183606001519450945094509450509193509193565b6000600560009054906101000a900460ff16905090565b6000600454905090565b600080600080600260008673ffffffffffffffffffffffffffffffffffffffff1673ffffffffffffffffffffffffffffffffffffffff1681526020019081526020016000206040518060800160405290816000820160009054906101000a900460ff16151515158152602001600182015481526020016002820160009054906101000a900460ff1615151515815260200160038201805461095890611ce6565b80601f016020809104026020016040519081016040528092919081815260200182805461098490611ce6565b80156109d15780601f106109a6576101008083540402835291602001916109d1565b820191906000526020600020905b8154815290600101906020018083116109b457829003601f168201915b5050505050815250509050806000015181602001518260400151935093509350509193909250565b60026020528060005260406000206000915090508060000160009054906101000a900460ff16908060010154908060020160009054906101000a900460ff1690806003018054610a4890611ce6565b80601f0160208091040260200160405190810160405280929190818152602001828054610a7490611ce6565b8015610ac15780601f10610a9657610100808354040283529160200191610ac1565b820191906000526020600020905b815481529060010190602001808311610aa457829003601f168201915b5050505050905084565b6060600060035467ffffffffffffffff811115610aeb57610aea611806565b5b604051908082528060200260200182016040528015610b2457816020015b610b1161133a565b815260200190600190039081610b095790505b5090506000600190505b6003548111610ce557600160008281526020019081526020016000206040518060a001604052908160008201548152602001600182018054610b6f90611ce6565b80601f0160208091040260200160405190810160405280929190818152602001828054610b9b90611ce6565b8015610be85780601f10610bbd57610100808354040283529160200191610be8565b820191906000526020600020905b815481529060010190602001808311610bcb57829003601f168201915b50505050508152602001600282018054610c0190611ce6565b80601f0160208091040260200160405190810160405280929190818152602001828054610c2d90611ce6565b8015610c7a5780601f10610c4f57610100808354040283529160200191610c7a565b820191906000526020600020905b815481529060010190602001808311610c5d57829003601f168201915b50505050508152602001600382015481526020016004820160009054906101000a900460ff16151515158152505082600183610cb69190611d17565b81518110610cc757610cc6611d4b565b5b60200260200101819052508080610cdd90611c6f565b915050610b2e565b508091505090565b600560009054906101000a900460ff1681565b60008054906101000a900473ffffffffffffffffffffffffffffffffffffffff1673ffffffffffffffffffffffffffffffffffffffff163373ffffffffffffffffffffffffffffffffffffffff1614610d8e576040517f08c379a0000000000000000000000000000000000000000000000000000000008152600401610d8590611dec565b60405180910390fd5b600560009054906101000a900460ff1615600560006101000a81548160ff0219169083151502179055507f9069a1a16ace751e8690f383e12f87b01e8488ba387e626810bd113fef0417f9600560009054906101000a900460ff16604051610df691906114b2565b60405180910390a1565b60008054906101000a900473ffffffffffffffffffffffffffffffffffffffff1673ffffffffffffffffffffffffffffffffffffffff163373ffffffffffffffffffffffffffffffffffffffff1614610e8e576040517f08c379a0000000000000000000000000000000000000000000000000000000008152600401610e8590611dec565b60405180910390fd5b60036000815480929190610ea190611c6f565b91905055506040518060a0016040528060035481526020018381526020018281526020016000815260200160011515815250600160006003548152602001908152602001600020600082015181600001556020820151816001019081610f079190611fb8565b506040820151816002019081610f1d9190611fb8565b506060820151816003015560808201518160040160006101000a81548160ff0219169083151502179055509050506003547f341fde884a8a8e12076148a32fda037e1dce87f343f3ac2d51c4b7de2dc8f9db83604051610f7d919061208a565b60405180910390a25050565b60008054906101000a900473ffffffffffffffffffffffffffffffffffffffff1673ffffffffffffffffffffffffffffffffffffffff163373ffffffffffffffffffffffffffffffffffffffff1614611017576040517f08c379a000000000000000000000000000000000000000000000000000000000815260040161100e90611dec565b60405180910390fd5b600260008373ffffffffffffffffffffffffffffffffffffffff1673ffffffffffffffffffffffffffffffffffffffff16815260200190815260200160002060020160009054906101000a900460ff16156110a7576040517f08c379a000000000000000000000000000000000000000000000000000000000815260040161109e906120f8565b60405180910390fd5b60405180608001604052806000151581526020016000815260200160011515815260200182815250600260008473ffffffffffffffffffffffffffffffffffffffff1673ffffffffffffffffffffffffffffffffffffffff16815260200190815260200160002060008201518160000160006101000a81548160ff0219169083151502179055506020820151816001015560408201518160020160006101000a81548160ff021916908315150217905550606082015181600301908161116d9190611fb8565b509050508173ffffffffffffffffffffffffffffffffffffffff167fffeb7702be7dcd8fee170d954b70afb9a7c78f7f5cff232d037e7b9d8243356a826040516111b7919061208a565b60405180910390a25050565b60016020528060005260406000206000915090508060000154908060010180546111ec90611ce6565b80601f016020809104026020016040519081016040528092919081815260200182805461121890611ce6565b80156112655780601f1061123a57610100808354040283529160200191611265565b820191906000526020600020905b81548152906001019060200180831161124857829003601f168201915b50505050509080600201805461127a90611ce6565b80601f01602080910402602001604051908101604052809291908181526020018280546112a690611ce6565b80156112f35780601f106112c8576101008083540402835291602001916112f3565b820191906000526020600020905b8154815290600101906020018083116112d657829003601f168201915b5050505050908060030154908060040160009054906101000a900460ff16905085565b60008054906101000a900473ffffffffffffffffffffffffffffffffffffffff1681565b6040518060a00160405280600081526020016060815260200160608152602001600081526020016000151581525090565b6000604051905090565b600080fd5b600080fd5b6000819050919050565b6113928161137f565b811461139d57600080fd5b50565b6000813590506113af81611389565b92915050565b6000602082840312156113cb576113ca611375565b5b60006113d9848285016113a0565b91505092915050565b6113eb8161137f565b82525050565b600060208201905061140660008301846113e2565b92915050565b600073ffffffffffffffffffffffffffffffffffffffff82169050919050565b60006114378261140c565b9050919050565b6114478161142c565b811461145257600080fd5b50565b6000813590506114648161143e565b92915050565b6000602082840312156114805761147f611375565b5b600061148e84828501611455565b91505092915050565b60008115159050919050565b6114ac81611497565b82525050565b60006020820190506114c760008301846114a3565b92915050565b600081519050919050565b600082825260208201905092915050565b60005b838110156115075780820151818401526020810190506114ec565b60008484015250505050565b6000601f19601f8301169050919050565b600061152f826114cd565b61153981856114d8565b93506115498185602086016114e9565b61155281611513565b840191505092915050565b600060808201905061157260008301876113e2565b81810360208301526115848186611524565b905081810360408301526115988185611524565b90506115a760608301846113e2565b95945050505050565b60006060820190506115c560008301866114a3565b6115d260208301856113e2565b6115df60408301846114a3565b949350505050565b60006080820190506115fc60008301876114a3565b61160960208301866113e2565b61161660408301856114a3565b81810360608301526116288184611524565b905095945050505050565b600081519050919050565b600082825260208201905092915050565b6000819050602082019050919050565b6116688161137f565b82525050565b600082825260208201905092915050565b600061168a826114cd565b611694818561166e565b93506116a48185602086016114e9565b6116ad81611513565b840191505092915050565b6116c181611497565b82525050565b600060a0830160008301516116df600086018261165f565b50602083015184820360208601526116f7828261167f565b91505060408301518482036040860152611711828261167f565b9150506060830151611726606086018261165f565b50608083015161173960808601826116b8565b508091505092915050565b600061175083836116c7565b905092915050565b6000602082019050919050565b600061177082611633565b61177a818561163e565b93508360208202850161178c8561164f565b8060005b858110156117c857848403895281516117a98582611744565b94506117b483611758565b925060208a01995050600181019050611790565b50829750879550505050505092915050565b600060208201905081810360008301526117f48184611765565b905092915050565b600080fd5b600080fd5b7f4e487b7100000000000000000000000000000000000000000000000000000000600052604160045260246000fd5b61183e82611513565b810181811067ffffffffffffffff8211171561185d5761185c611806565b5b80604052505050565b600061187061136b565b905061187c8282611835565b919050565b600067ffffffffffffffff82111561189c5761189b611806565b5b6118a582611513565b9050602081019050919050565b82818337600083830152505050565b60006118d46118cf84611881565b611866565b9050828152602081018484840111156118f0576118ef611801565b5b6118fb8482856118b2565b509392505050565b600082601f830112611918576119176117fc565b5b81356119288482602086016118c1565b91505092915050565b6000806040838503121561194857611947611375565b5b600083013567ffffffffffffffff8111156119665761196561137a565b5b61197285828601611903565b925050602083013567ffffffffffffffff8111156119935761199261137a565b5b61199f85828601611903565b9150509250929050565b600080604083850312156119c0576119bf611375565b5b60006119ce85828601611455565b925050602083013567ffffffffffffffff8111156119ef576119ee61137a565b5b6119fb85828601611903565b9150509250929050565b600060a082019050611a1a60008301886113e2565b8181036020830152611a2c8187611524565b90508181036040830152611a408186611524565b9050611a4f60608301856113e2565b611a5c60808301846114a3565b9695505050505050565b611a6f8161142c565b82525050565b6000602082019050611a8a6000830184611a66565b92915050565b7f566f74696e67206973206e6f74206f70656e0000000000000000000000000000600082015250565b6000611ac66012836114d8565b9150611ad182611a90565b602082019050919050565b60006020820190508181036000830152611af581611ab9565b9050919050565b7f596f7520617265206e6f74207265676973746572656420746f20766f74650000600082015250565b6000611b32601e836114d8565b9150611b3d82611afc565b602082019050919050565b60006020820190508181036000830152611b6181611b25565b9050919050565b7f596f75206861766520616c726561647920766f74656400000000000000000000600082015250565b6000611b9e6016836114d8565b9150611ba982611b68565b602082019050919050565b60006020820190508181036000830152611bcd81611b91565b9050919050565b7f4e6f6d696e656520646f6573206e6f7420657869737400000000000000000000600082015250565b6000611c0a6016836114d8565b9150611c1582611bd4565b602082019050919050565b60006020820190508181036000830152611c3981611bfd565b9050919050565b7f4e487b7100000000000000000000000000000000000000000000000000000000600052601160045260246000fd5b6000611c7a8261137f565b91507fffffffffffffffffffffffffffffffffffffffffffffffffffffffffffffffff8203611cac57611cab611c40565b5b600182019050919050565b7f4e487b7100000000000000000000000000000000000000000000000000000000600052602260045260246000fd5b60006002820490506001821680611cfe57607f821691505b602082108103611d1157611d10611cb7565b5b50919050565b6000611d228261137f565b9150611d2d8361137f565b9250828203905081811115611d4557611d44611c40565b5b92915050565b7f4e487b7100000000000000000000000000000000000000000000000000000000600052603260045260246000fd5b7f4f6e6c792061646d696e2063616e20706572666f726d2074686973206163746960008201527f6f6e000000000000000000000000000000000000000000000000000000000000602082015250565b6000611dd66022836114d8565b9150611de182611d7a565b604082019050919050565b60006020820190508181036000830152611e0581611dc9565b9050919050565b60008190508160005260206000209050919050565b60006020601f8301049050919050565b600082821b905092915050565b600060088302611e6e7fffffffffffffffffffffffffffffffffffffffffffffffffffffffffffffffff82611e31565b611e788683611e31565b95508019841693508086168417925050509392505050565b6000819050919050565b6000611eb5611eb0611eab8461137f565b611e90565b61137f565b9050919050565b6000819050919050565b611ecf83611e9a565b611ee3611edb82611ebc565b848454611e3e565b825550505050565b600090565b611ef8611eeb565b611f03818484611ec6565b505050565b5b81811015611f2757611f1c600082611ef0565b600181019050611f09565b5050565b601f821115611f6c57611f3d81611e0c565b611f4684611e21565b81016020851015611f55578190505b611f69611f6185611e21565b830182611f08565b50505b505050565b600082821c905092915050565b6000611f8f60001984600802611f71565b1980831691505092915050565b6000611fa88383611f7e565b9150826002028217905092915050565b611fc1826114cd565b67ffffffffffffffff811115611fda57611fd9611806565b5b611fe48254611ce6565b611fef828285611f2b565b600060209050601f8311600181146120225760008415612010578287015190505b61201a8582611f9c565b865550612082565b601f19841661203086611e0c565b60005b8281101561205857848901518255600182019150602085019450602081019050612033565b868310156120755784890151612071601f891682611f7e565b8355505b6001600288020188555050505b505050505050565b600060208201905081810360008301526120a48184611524565b905092915050565b7f566f74657220616c726561647920726567697374657265640000000000000000600082015250565b60006120e26018836114d8565b91506120ed826120ac565b602082019050919050565b60006020820190508181036000830152612111816120d5565b905091905056fea2646970667358221220aff003dd6859539461fed0ba7ab1cdff809882b85ca437e5d8e345c126fd17d364736f6c63430008130033",
  "linkReferences": {},
  "deployedLinkReferences": {}
}